8=FIX.4.4|9=163|35=A|34=1|49=d8c8d8b3351147869bda099d2d7598eb|52=20260324-06:12:43.000|56=SERVER|1=d8c8d8b3351147869bda099d2d7598eb|98=0|108=30|141=Y|553=Group08|554=FKaAWHT3Xir8|10=220|8=FIX.4.4|9=214|35=D|34=2|49=d8c8d8b3351147869bda099d2d7598eb|52=20260324-06:12:55.000|56=SERVER|1=d8c8d8b3351147869bda099d2d7598eb|11=aa7e861e|38=1|40=2|44=1774.1|54=1|55=VN30F2604|59=1|60=20260324-06:12:55|207=HNXDS|553=Group08|10=095|8=FIX.4.4|9=214|35=D|34=3|49=d8c8d8b3351147869bda099d2d7598eb|52=20260324-06:12:55.000|56=SERVER|1=d8c8d8b3351147869bda099d2d7598eb|11=5288141e|38=1|40=2|44=1774.3|54=2|55=VN30F2604|59=1|60=20260324-06:12:55|207=HNXDS|553=Group08|10=211|8=FIX.4.4|9=212|35=D|34=4|49=d8c8d8b3351147869bda099d2d7598eb|52=20260324-06:13:02.000|56=SERVER|1=d8c8d8b3351147869bda099d2d7598eb|11=4802f47c|38=1|40=2|44=1774|54=1|55=VN30F2604|59=1|60=20260324-06:13:02|207=HNXDS|553=Group08|10=146|8=FIX.4.4|9=214|35=D|34=5|49=d8c8d8b3351147869bda099d2d7598eb|52=20260324-06:13:02.000|56=SERVER|1=d8c8d8b3351147869bda099d2d7598eb|11=20f3e596|38=1|40=2|44=1774.2|54=2|55=VN30F2604|59=1|60=20260324-06:13:02|207=HNXDS|553=Group08|10=248|8=FIX.4.4|9=214|35=D|34=6|49=d8c8d8b3351147869bda099d2d7598eb|52=20260324-06:13:06.000|56=SERVER|1=d8c8d8b3351147869bda099d2d7598eb|11=a29a850a|38=1|40=2|44=1773.7|54=1|55=VN30F2604|59=1|60=20260324-06:13:06|207=HNXDS|553=Group08|10=043|8=FIX.4.4|9=214|35=D|34=7|49=d8c8d8b3351147869bda099d2d7598eb|52=20260324-06:13:06.000|56=SERVER|1=d8c8d8b3351147869bda099d2d7598eb|11=0465d806|38=1|40=2|44=1773.9|54=2|55=VN30F2604|59=1|60=20260324-06:13:06|207=HNXDS|553=Group08|10=213|8=FIX.4.4|9=214|35=D|34=8|49=d8c8d8b3351147869bda099d2d7598eb|52=20260324-06:13:08.000|56=SERVER|1=d8c8d8b3351147869bda099d2d7598eb|11=b8bbc3ce|38=1|40=2|44=1773.9|54=1|55=VN30F2604|59=1|60=20260324-06:13:08|207=HNXDS|553=Group08|10=196|8=FIX.4.4|9=214|35=D|34=9|49=d8c8d8b3351147869bda099d2d7598eb|52=20260324-06:13:08.000|56=SERVER|1=d8c8d8b3351147869bda099d2d7598eb|11=050b6d74|38=1|40=2|44=1774.1|54=2|55=VN30F2604|59=1|60=20260324-06:13:08|207=HNXDS|553=Group08|10=255|8=FIX.4.4|9=215|35=D|34=10|49=d8c8d8b3351147869bda099d2d7598eb|52=20260324-06:13:11.000|56=SERVER|1=d8c8d8b3351147869bda099d2d7598eb|11=79e8b4cd|38=1|40=2|44=1773.7|54=2|55=VN30F2604|59=1|60=20260324-06:13:11|207=HNXDS|553=Group08|10=143|8=FIX.4.4|9=213|35=D|34=11|49=d8c8d8b3351147869bda099d2d7598eb|52=20260324-06:13:13.000|56=SERVER|1=d8c8d8b3351147869bda099d2d7598eb|11=fe3ea1cf|38=1|40=2|44=1774|54=1|55=VN30F2604|59=1|60=20260324-06:13:13|207=HNXDS|553=Group08|10=129|8=FIX.4.4|9=215|35=D|34=12|49=d8c8d8b3351147869bda099d2d7598eb|52=20260324-06:13:14.000|56=SERVER|1=d8c8d8b3351147869bda099d2d7598eb|11=10962c96|38=1|40=2|44=1773.1|54=2|55=VN30F2604|59=1|60=20260324-06:13:14|207=HNXDS|553=Group08|10=251|8=FIX.4.4|9=215|35=D|34=13|49=d8c8d8b3351147869bda099d2d7598eb|52=20260324-06:13:17.000|56=SERVER|1=d8c8d8b3351147869bda099d2d7598eb|11=bf42b44c|38=1|40=2|44=1774.4|54=1|55=VN30F2604|59=1|60=20260324-06:13:17|207=HNXDS|553=Group08|10=140|8=FIX.4.4|9=215|35=D|34=14|49=d8c8d8b3351147869bda099d2d7598eb|52=20260324-06:13:17.000|56=SERVER|1=d8c8d8b3351147869bda099d2d7598eb|11=63caa2a3|38=1|40=2|44=1774.7|54=2|55=VN30F2604|59=1|60=20260324-06:13:17|207=HNXDS|553=Group08|10=138|